:020000040800F2
:10000000A00E0020812A0008810400088304000853
:10001000870400088B0400088F040008000000001B
:100020000000000000000000000000009304000831
:1000300095040008000000009704000899040008D7
:100040009B2A00089B2A00089B2A00089B2A00087C
:100050009B2A00089B2A00089B2A00089B2A00086C
:100060009B2A00089B2A00089B2A00089B2A00085C
:100070009B2A00089B2A00089B2A00089B2A00084C
:100080009B2A00089B2A00089B2A00089B2A00083C
:100090009B0400089B2A00089B2A00089B2A000852
:1000A0009B2A00089B2A00089B2A00089B2A00081C
:1000B0009B2A0008E75400089B2A00089B2A000896
:1000C0009B2A00089B2A00089B2A00089B2A0008FC
:1000D0009B2A00086D500008B3040008B50400080E
:1000E0009B2A00089B2A0008A304000800F002F8DD
:1000F00000F05AF80AA090E8000C82448344AAF168
:100100000107DA4501D100F04FF8AFF2090EBAE865
:100110000F0013F0010F18BFFB1A43F0010318473B
:10012000706E0000906E00000A444FF0000C10F852
:10013000013B13F0070408BF10F8014B1D1108BF65
:1001400010F8015B641E05D010F8016B641E01F805
:10015000016BF9D113F0080F1EBF10F8014BAD1C55
:100160000C1B09D16D1E58BF01F801CBFAD505E073
:1001700014F8016B01F8016B6D1EF9D59142D6D3CD
:10018000704700000023002400250026103A28BFF5
:1001900078C1FBD8520728BF30C148BF0B607047F9
:1001A0001FB51FBD10B510BD05F074FF1146FFF758
:1001B000F7FF00F009F805F092FF03B4FFF7F2FF34
:1001C00003BC04F003FF000000F044F84FF41650A5
:1001D00004F00BFF04F07FFE04F086FE00F09FF8B1
:1001E00000F047F803F014FAC82005F049F805F0CC
:1001F000FFFA1449087005F0D4F9642005F040F8BE
:1002000005F0F6FC41F61F41092005F019FE17E044
:1002100005F025F90B48007870280CD004F0B1FAED
:100220004FF4FA7005F02CF804F0A5FA4FF4FA70C8
:1002300005F026F804E004F0A4FA012005F020F807
:10024000E6E700000000002010B50121084601F09B
:100250002BF810BD10B505F020FEFFF7F5FF0121CA
:10026000080701F02EF804F0EDFF04F047FF10BD81
:10027000704710B5002000F077FF0121C80501F09C
:1002800020F810BD032078490860002077490870E5
:10029000704777480121754A1170817A19B105219B
:1002A000714A116002E001216F4A1160704710B578
:1002B000012000F010FF00BF212000F0CAFE00283E
:1002C000FAD0002000F019FF002000F013FF0020FA
:1002D00000F09CFE30BF10BD10B500F0D6FE6549A1
:1002E00008704FF4803000F091FE00BF312000F024
:1002F000B0FE0028FAD0012000F0FCFE00BF39203B
:1003000000F0A7FE0028FAD0022000F0F6FE00BFA1
:1003100000F0FCFE0828FBD110BD704770470EB5F9
:100320004FF4802000F0BDF94FF4802001900820A8
:100330008DF8090000208DF8080001208DF80A00D2
:1003400001A800F037F94FF4A06000F0B7F81420CE
:100350008DF8000002208DF8010000208DF80200C9
:1003600001208DF80300684600F0ADF82A208DF8D2
:10037000000001208DF80100684600F0A4F80EBDD1
:1003800070477047F0B5044616460BB1022500E0F1
:1003900001252A4600201FE004F01F050A2D08DA77
:1003A00005F1300707F0FF0C00FB02F701F807C06A
:1003B00007E005F1370707F0FF0C00FB02F701F833
:1003C00007C033B14FF0000C00FB02F77F1C01F8AF
:1003D00007C06409451CE8B2B042DDDBF0BD002176
:1003E0002548008808B10120704719B122480180D2
:1003F0000120F9E70020F7E710B5FFF7F0FF1E48EE
:100400000088022802DA02201B49088010BD10B5BE
:100410000446FFF7F1FF10BD2DE9F04704468A4678
:100420004FF0AA373D461548D0F80080001DD0F89F
:100430000090001D066806F4404086EA900789EAAD
:10044000080505F4404085EA900500230622214670
:100450003846FFF797FF00230622A11D2846FFF725
:1004600091FFBDE8F0870000400100200600002059
:10047000AC0100200200002004000020E8F7FF1F6C
:10048000704700BFFEE700BFFEE700BFFEE700BF0A
:10049000FEE7704770477047704710B503F0EEFEF7
:1004A00010BD10B5012004490870800400F0F9F86F
:1004B00010BD70477047000006000020314901431D
:1004C000314A1160704770B5002100230F22C478B3
:1004D00004B32D4C246804F4E064C4F5E064210AFC
:1004E000C1F10403CA40447804FA03F1847814404B
:1004F00021430901254C0678A155047804F01F0515
:100500000124AC4005786D11AD0005F1E025C5F87A
:10051000004109E0047804F01F050124AC401C4DA3
:100520000678761145F8264070BD1A4A0A40024303
:10053000154B1B1F1A60704739B1134A121D126800
:100540000243114B1B1D1A6006E00F4A121D126870
:1005500082430D4B1B1D1A607047042808D14FF0D1
:10056000E021096941F004014FF0E022116107E048
:100570004FF0E021096921F004014FF0E022116100
:10058000704700000000FA050CED00E000E400E018
:1005900080E100E080FFFF1F002044490860091D42
:1005A0000860091D0860091D086041483F49143171
:1005B0000860704700213D498279002A3AD00A46F6
:1005C000126803689A430B461A600A1D1268036892
:1005D0009A430B1D1A60027911440A6803681A4392
:1005E0000A60324A0832126803689A432F4B083374
:1005F0001A601A1D126803689A432C4B0C331A6058
:100600004279102A0ED11A1F126803681A43274B29
:1006100008331A601A1D126803681A43234B0C33FF
:100620001A600DE02149427911440A6803681A43AF
:100630000A6005E0027911440A6803689A430A6077
:1006400070470021016001710C214171002181710D
:1006500070471649103109680143144A103211607D
:10066000704701460020114A143212680A400AB14C
:10067000012000E0002070470C49143108607047E9
:10068000014600200022094B1B6803EA0102074BC8
:1006900014331B680B4013B10AB1012000E00020A5
:1006A000704702491431086070470000000401409F
:1006B000FFFF0F0001460020FE4A106800F03800DE
:1006C000084310607047FB49096821F00801F94AA6
:1006D000116011460968014311607047F5490968C6
:1006E00021F01001F34A11601146096801431160BD
:1006F0007047F148EF494860F04848607047EE485D
:10070000EC494860ED4848607047EA48006940F0AD
:100710008000E84908617047E648006940F08000C1
:10072000E449086170470420E249C96801F0010109
:1007300009B101200EE0DF49C96801F0040109B1E7
:10074000022007E0DB49C96801F0100109B103206C
:1007500000E00420704700B502460423FFF7E3FFE2
:10076000034603E0FFF7DFFF0346521E012B01D1D2
:10077000002AF7D102B90523184600BD30B504465A
:1007800004254FF43020FFF7E6FF0546042D17D16E
:10079000C848006940F00200C64908610846446143
:1007A000006940F0400008614FF43020FFF7D3FFAC
:1007B0000546C048006941F6FD710840BD49086121
:1007C000284630BD10B504244FF43020FFF7C3FF96
:1007D0000446042C16D1B748006940F00400B5491E
:1007E00008610846006940F0400008614FF430207D
:1007F000FFF7B1FF0446AF48006941F6FB710840BE
:10080000AC490861204610BD00B502460423FFF73D
:100810008AFF034603E0FFF786FF0346521E012BC3
:1008200001D1002AF7D102B90523184600BD10B541
:1008300004244FF43020FFF7E7FF0446042C16D1C0
:100840009C48006940F004009A4908610846006924
:1008500040F0400008614FF43020FFF7D5FF044618
:100860009448006941F6FB710840924908612046AE
:1008700010BD00208F49C96901F0020109B10120B2
:1008800000E00020704730B5A5250424FFF7F1FFF4
:1008900000B100254FF43020FFF75DFF0446042C23
:1008A0003AD1854883498860844888600846006951
:1008B00040F0200008610846006940F040000861EF
:1008C0004FF43020FFF747FF0446042C1BD1794832
:1008D000006941F6DF710840764908610846006901
:1008E00040F01000086176480580E002FFF733FF12
:1008F0000446052C10D06F48006941F6EF7108409E
:100900006C49086108E0052C06D06A48006941F688
:10091000EF71084067490861204630BD78B506464A
:100920000C46042500200090E802FFF714FF05465E
:10093000042D24D15F48006940F001005D49086141
:100940003480E802FFF707FF0546042D10D1B01CE4
:100950000090200C00990880E802FFF7FCFE054695
:100960005448006941F6FE7108405249086106E0AA
:100970005048006941F6FE7108404E49086128461A
:1009800078BD70B504460D460426F002FFF7E3FE7D
:100990000646042E11D14748006940F00100454940
:1009A00008612580F002FFF7D6FE0646414800693F
:1009B00041F6FE7108403F490861304670BD70B590
:1009C00005460E460424E002FFF7C5FE0446042C4B
:1009D00017D1394837498860384888600846006927
:1009E00040F0100008612E80E002FFF7B4FE0446DC
:1009F000052C06D02F48006941F6EF7108402D49BB
:100A00000861204670BD2DE9F04304464FF6FF769D
:100A10003746B046B1460425E443E6B2C4F307279F
:100A2000C4F307484FEA1469E802FFF794FE05464D
:100A3000042D49D120481F49886020488860084615
:100A4000006940F010000861FF2E06D01C480830F5
:100A50000680E802FFF77FFE0546042D08D1FF2F30
:100A600006D017480A300780E802FFF774FE0546F3
:100A7000042D0AD1B8F1FF0F07D011480C30A0F8AF
:100A80000080E802FFF767FE0546042D0AD1B9F1A0
:100A9000FF0F07D00A480E30A0F80090E802FFF7D9
:100AA0005AFE0546052D0FD00248006941F6EF7148
:100AB000084007E00020024023016745AB89EFCDE5
:100AC00000F8FF1F664908612846BDE8F08330B58D
:100AD000054604244FF43020FFF73DFE0446042C65
:100AE00041D160485E4988605F4888600846006977
:100AF00040F0200008610846006940F040000861AD
:100B00004FF43020FFF727FE0446042C22D154482E
:100B1000006941F6DF7108405149086108460069E3
:100B200040F0100008611DB100205049088002E02B
:100B3000A5204E4908804FF43020FFF70CFE0446F4
:100B4000052C10D04648006941F6EF710840444931
:100B5000086108E0052C06D04148006941F6DF71C4
:100B600008403F490861204630BDF0B505460E46B5
:100B7000174604243B483A4988603B488860E002B5
:100B8000FFF7E9FD0446042C19D13548006940F00F
:100B900010003349086147F0F800304328433349D7
:100BA000891C0880E002FFF7D6FD0446052C06D01C
:100BB0002B48006941F6EF71084029490861204639
:100BC000F0BD2748C069800870472548006A704713
:100BD00000202349096801F0200109B1012000E04B
:100BE0000020704729B11E4A126902431C4B1A614A
:100BF00004E01B4A12698243194B1A61704701468F
:100C00000020012908D1164AD26902F001020AB176
:100C1000012008E0002006E0114AD2680A400AB12B
:100C2000012000E0002070470D49C8607047042093
:100C30000B49C96801F0010109B101200EE0084922
:100C4000C96801F0040109B1022007E00449C9683C
:100C500001F0100109B1032000E0042070470000FA
:100C60000020024023016745AB89EFCD00F8FF1F4C
:100C700010B50446CC48844208D10121042000F07C
:100C80002DFB0021042000F029FB46E0C7488442E8
:100C900008D10121082000F021FB0021082000F0EC
:100CA0001DFB3AE0C248844208D10121102000F027
:100CB00015FB0021102000F011FB2EE0BD488442FE
:100CC00008D10121202000F009FB0021202000F0A4
:100CD00005FB22E0B848844208D10121402000F001
:100CE000FDFA0021402000F0F9FA16E0B3488442F2
:100CF00008D10121802000F0F1FA0021802000F0CD
:100D0000EDFA0AE0AE48844207D10121801500F0D7
:100D1000E5FA0021A01500F0E1FA10BD10B501219F
:100D2000084600F0DBFA0021012000F0D7FA10BDE0
:100D30002DE9F04102460025002600200023002472
:100D4000002791F803C00CF00F0591F803C00CF0D8
:100D5000100CBCF1000F03D091F802C04CEA05055D
:100D600091F800C0BCF1000F31D0146800202BE0D6
:100D70004FF0010C0CFA00F3B1F800C00CEA0306C6
:100D80009E4220D183004FF00F0C0CFA03F7BC43B6
:100D900005FA03FC4CEA040491F803C0BCF1280FE7
:100DA00006D14FF0010C0CFA00FCC2F814C00AE0A6
:100DB00091F803C0BCF1480F05D14FF0010C0CFABB
:100DC00000FCC2F810C0401C0828D1D31460B1F850
:100DD00000C0BCF1FF0F34DD546800202EE000F1AC
:100DE000080C4FF0010808FA0CF3B1F800C00CEA47
:100DF00003069E4221D183004FF00F0C0CFA03F73B
:100E0000BC4305FA03FC4CEA040491F803C0BCF1AE
:100E1000280F05D100F1080C08FA0CF8C2F814806C
:100E200091F803C0BCF1480F07D100F1080C4FF056
:100E3000010808FA0CF8C2F81080401C0828CED32C
:100E40005460BDE8F0814FF6FF710180022181708E
:100E50000421C17070470246002093680B400BB11B
:100E6000012000E0002070470146886880B270478A
:100E700002460020D3680B400BB1012000E00020A7
:100E800070470146C86880B2704701617047416190
:100E900070470AB1016100E041617047C16070476D
:100EA0004FF480320A438261816182618269826982
:100EB000704702460020434B18684FF68073184075
:100EC00040EA021008433F4B186070473E49C86132
:100ED0007047F0B50A46002300240021002500F0E9
:100EE0000046B6F1004F02D1364EF16901E0354EB1
:100EF0007168C0F3034583B200F44016B6F5401F95
:100F000008D121F070612F4E766826F070662D4F63
:100F10007E6012E000F48016B6F5801F06D103262D
:100F200006FA05F4A14341F0706106E0460D360172
:100F300003FA06F6B14341F0706122B1460D360165
:100F400003FA06F6314300F00046B6F1004F02D135
:100F50001C4EF16101E01B4E7160F0BD30B5002206
:100F60008B071C0F0F2303FA04F2164B08338C1067
:100F700053F824309343134C08348D1044F8253033
:100F800023468C1053F824308C07240F00FA04F405
:100F900023430C4C08348D1044F8253030BD0A49E9
:100FA000DC3108607047000000080140000C01407F
:100FB000001001400014014000180140001C0140D5
:100FC000002001400000014000002042DF4800688E
:100FD00040F00100DD49086008464068DC490840EF
:100FE000DA49486008460068DA490840D74908608D
:100FF0000846006820F4802008600846406820F415
:10100000FE0048604FF41F0088607047CF490968B0
:1010100021F48031CD4A11601146096821F4802104
:101020001160B0F5803F03D0B0F5802F0ED106E0FF
:10103000C649096841F48031C44A116007E0C349D8
:10104000096841F4A021C14A116000E000BF00BF5F
:10105000704710B501460022002300204A11012AE2
:1010600002D1BA4C236806E0022A02D1B74C236AA7
:1010700001E0B64C636A01F01F02012494401C4059
:101080000CB1012000E0002010BD38B50020009018
:101090000024002500BF3120FFF7DBFF0546009844
:1010A000401C00900098B0F5A06F01D0002DF2D048
:1010B0003120FFF7CEFF08B1012400E000242046D4
:1010C00038BD01460020A14A106820F0F80040EA2F
:1010D000C10010607047A0490860704702460020B8
:1010E0009A4B586820F47C1042EA01031843974B4E
:1010F0005860704798490866704701460020934A37
:10110000506820F003000843506070478F484068E3
:1011100000F00C007047014600208C4A506820F017
:10112000F00008435060704701460020874A50682D
:1011300020F4E06008435060704701460020834A75
:10114000506820F4605040EAC1005060704729B1F7
:101150007E4A527A02437D4B5A7204E07B4A527AAD
:1011600082437A4B5A7270477B49D8310860704786
:1011700001460020754A506820F440400843506002
:1011800070470021714A20321170704A82F8201095
:10119000012802D004280AD104E001216B4A203240
:1011A000117005E00521694A2032117000E000BF8E
:1011B00000BF70476949086070476449096A014384
:1011C000624A11627047654944390860704730B51A
:1011D00000210022002400235C4D6D6805F00C0105
:1011E00021B1042905D0082923D105E05C4D056013
:1011F00022E05B4D05601FE0544D6D6805F47012F0
:10120000524D6D6805F48034022505EB92421CB9FD
:10121000544D554305600BE04C4D6D6805F40035A9
:101220001DB1504D5543056002E04D4D55430560DD
:1012300002E04B4D056000BF00BF444D6D6805F0F6
:10124000F0010909484D6B5C0568DD4045603F4D84
:101250006D6805F4E061090A434D6B5C4568DD404B
:1012600085603A4D6D6805F46051C90A3E4D6B5C6E
:101270004568DD40C560354D6D6805F44041890B1A
:101280003A4D6B5CC568B5FBF3F5056130BD29B11E
:101290002E4A526902432D4B5A6104E02B4A52698F
:1012A00082432A4B5A61704729B1284A9269024306
:1012B000264B9A6104E0254A92698243234B9A6146
:1012C000704729B1214AD2690243204BDA6104E018
:1012D0001E4AD26982431D4BDA61704729B11B4A0D
:1012E000D2680243194BDA6004E0184AD26882439C
:1012F000164BDA60704729B1144A12690243134B46
:101300001A6104E0114A12698243104B1A61704756
:1013100012494039086070470F49C86470470B494B
:10132000C87170470948406A40F0807007494862B8
:10133000704701460020054A92680A400AB1012020
:1013400000E0002070470149887270470010024099
:101350000000FFF8FFFFF6FE000042428004424218
:1013600000127A0000093D0007000020170000204D
:1013700010B50446BE48844208D101218014FFF70D
:10138000ADFF0021A014FFF7A9FF16E0B948844281
:1013900008D101210014FFF7AEFF00212014FFF750
:1013A000AAFF0AE0B448844207D10121C013FFF725
:1013B000A2FF0021E013FFF79EFF10BD10B5002231
:1013C000028802F441520B884C8823438C882343C3
:1013D000CC8823430C8923434C8923438C892343A2
:1013E000CC8923431A430280838B4FF2FF7423403E
:1013F00083830B8A038210BD2DE9F04F85B005462B
:101400000C464FF0000902274FF000084FF0010B87
:101410000026B246A88B4FF240010840A883022064
:101420002884B5F81C90A068022801D100BF38E0DC
:10143000A08810B94FF0010B01E04FF0020B8D486E
:10144000854200D100E000BF6846FFF7C0FEDDF82E
:1014500000A0E088B0F5007F0AD14FEA1A2000EB27
:1014600080004000A168B0FBF1F0401D86B20BE0A7
:101470004FEA4B10BAFBF0F000EB80004000A1688F
:10148000B0FBF1F0401D86B20A20B6FBF0F606F084
:101490000108A6EB0800C0F34F074FF6FF7000EA03
:1014A0000828022F01DBFF2F02DD02274FF0000882
:1014B000E08840EA080038432884A088A1890843CE
:1014C000618808432188084340F4006040EA090924
:1014D000A5F81C9005B0BDE8F08F00210180418087
:1014E0008180C180018141818181C1810721018287
:1014F00070470021018041808180C180022181608C
:1015000000218181704721B1028842F040020280AF
:1015100004E002884FF6BF731A400280704721B181
:10152000828B42F48062828304E0828B4FF6FF3329
:101530001A408283704730B5002400230C11012526
:10154000A540ABB21AB185881D43858002E085882D
:101550009D43858030BD1AB183880B43838002E0B0
:1015600083888B43838070478181704701468889D7
:1015700070474FF6FF62914204D0028842F48072B5
:10158000028004E002884FF6FF631A400280704731
:1015900021B1828842F00402828004E082884FF602
:1015A000FB731A408280704702884FF2FF731A4023
:1015B000028002880A4302807047018841F480510A
:1015C0000180704721B1028842F40052028004E099
:1015D00002884DF6FF731A400280704702460020D1
:1015E000012901D0108B00E0908A70470146088ADB
:1015F0007047B1F5804F04D1028842F480420280E6
:1016000004E002884BF6FF731A40028070470246DE
:10161000002013890B400BB1012000E0002070472F
:10162000CA4302817047F0B502460020002400231F
:10163000002501F00F070126BE40B4B20B110126B0
:101640009E40B3B2968806EA03051689264016B175
:101650000DB1012000E00020F0BD10B5002201F026
:101660000F040123A3409AB2D343038110BD0000AD
:101670000030014000380040003C004010B50446F6
:10168000FE48844208D10121C014FFF727FE002143
:10169000E014FFF723FEC4E0B4F1804F08D101212C
:1016A0000846FFF728FE00210120FFF724FEB8E0DE
:1016B000F348844208D101210220FFF71CFE0021DB
:1016C0000220FFF718FEACE0EE48844208D1012169
:1016D0000420FFF710FE00210420FFF70CFEA0E01D
:1016E000E948844208D101210820FFF704FE0021C7
:1016F0000820FFF700FE94E0E448844208D101216D
:101700001020FFF7F8FD00211020FFF7F4FD88E01E
:10171000DF48844208D101212020FFF7ECFD0021A1
:101720002020FFF7E8FD7CE0DA48844208D101215F
:101730004014FFF7D3FD00216014FFF7CFFD70E0E8
:10174000D548844209D10121C804FFF7C7FD002113
:101750004FF40020FFF7C2FD63E0D048844209D176
:1017600001210805FFF7BAFD00214FF48010FFF7B3
:10177000B5FD56E0CA48844209D101214805FFF76A
:10178000ADFD00214FF40010FFF7A8FD49E0C5486A
:10179000844208D101214020FFF7ADFD0021402007
:1017A000FFF7A9FD3DE0C048844208D10121802017
:1017B000FFF7A1FD00218020FFF79DFD31E0BB4830
:1017C000844208D101218015FFF795FD0021A01565
:1017D000FFF791FD25E0B648844209D101210804B4
:1017E000FFF77CFD00214FF48030FFF777FD18E014
:1017F000B048844209D101214804FFF76FFD002160
:101800004FF40030FFF76AFD0BE0AB48844208D18B
:1018100001218804FFF762FD00214FF48020FFF7CB
:101820005DFD10BD00220288944B98420ED0994B6A
:1018300098420BD0B0F1804F08D0914B984205D020
:10184000904B984202D0904B984204D14FF68F7340
:101850001A404B881A438D4B984207D08C4B9842C4
:1018600004D04FF6FF431A40CB881A4302808B887E
:1018700083850B880385814B98420BD0854B98421A
:1018800008D08B4B984205D08A4B984202D08A4BA5
:10189000984201D10B7A038601238382704770B589
:1018A000002400220023058C4FF6FE763540058487
:1018B000028C8388048B4FF68F752C40B51E2C400C
:1018C0000D882C43751E2A400D892A434D882A43D2
:1018D0006A4DA8420BD06F4DA84208D0744DA84263
:1018E00005D0744DA84202D0734DA84213D14FF6D3
:1018F000F7752A404D892A434FF6FB752A408D889B
:101900002A434FF6FF652B404FF6FF552B408D893C
:101910002B43CD892B4383800483CD888586028425
:1019200070BD70B5002400220023058C4FF6EF76C1
:1019300035400584028C8388048B48F6FF752C4063
:101940004FF6FF452C400D884FF6FF7606EA052539
:101950002C434FF6DF752A400D8906EA05152A4308
:101960004D8806EA05152A43444DA84202D0494D48
:10197000A8421DD14FF67F752A404D894FF6FF765C
:1019800006EA05152A434FF6BF752A408D8806EAF8
:1019900005152A434FF6FF352B404FF2FF752B40BC
:1019A0008D8906EA85052B43CD8906EA85052B43FB
:1019B00083800483CD880587028470BD70B50024C0
:1019C00000220023058C4FF6FF6635400584028C0B
:1019D0008388848B4FF68F752C404FF6FC752C4016
:1019E0000D882C434FF6FF552A400D894FF6FF76A0
:1019F00006EA05252A434D8806EA05252A431F4D98
:101A0000A84202D0234DA8421DD14FF2FF752A40B3
:101A10004D894FF6FF7606EA05252A434FF6FF3536
:101A20002A408D8806EA05252A434EF6FF752B408D
:101A30004DF6FF752B408D8906EA05152B43CD89A0
:101A400006EA05152B4383808483CD88858702842D
:101A500070BD70B5002200230024058C4EF6FF7681
:101A600035400584038C8488828B48F6FF752A40B4
:101A70004FF6FF452A400D8820E00000002C014071
:101A80000004004000080040000C0040001000402E
:101A90000014004000340140004C0140005001405F
:101AA0000054014000180040001C0040002000408D
:101AB0000040014000440140004801404FF6FF76DD
:101AC00006EA05252A434DF6FF752B400D8906EAE7
:101AD00005352B434D8806EA05352B43FA4DA842C0
:101AE00002D0FA4DA84208D14BF6FF752C408D89E3
:101AF0004FF6FF7606EA85152C4384808283CD88D5
:101B0000A0F84050038470BD828B4FF2FF331A401F
:101B10008283828B4FF6FF7303EA01231A43828389
:101B20007047F0B50C461546002200210026078CB0
:101B30004EF6FF7C07EA0C070784828B018C4FF678
:101B4000FF7707EA043640F6FF473A404FF6FF7743
:101B500007EA05273A434FF6FF7707EA03373A4388
:101B6000D94FB8420ED0D94FB8420BD0B0F1804F08
:101B700008D0D74FB84205D0D64FB84202D0D64F82
:101B8000B84206D14DF6FF77394046F480573943C5
:101B900005E047F6FF57394044F4805739438283C4
:101BA0000184F0BD828B4FF6F3731A408283828BDF
:101BB0000A4382837047F0B50C4615460022002187
:101BC0000026078C4FF6FF6C07EA0C070784828B10
:101BD000018C4FF6FF7707EA04264FF60C773A4060
:101BE0004FF6FF7707EA03172F433A43B64FB84241
:101BF0000ED0B64FB8420BD0B0F1804F08D0B44FE2
:101C0000B84205D0B34FB84202D0B34FB84206D164
:101C10004FF6FF57394046F48077394305E04FF2DD
:101C2000FF57394044F48077394382830184F0BD03
:101C3000028B4FF2FF331A400283028B4FF6FF7381
:101C400003EA01231A4302837047F0B50C46154698
:101C5000002200210026078C4FF6EF7C07EA0C07D4
:101C60000784028B018C4FF6FF7707EA041640F6D3
:101C7000FF473A404FF6FF7707EA03373A434FF6FC
:101C8000FF7707EA05273A438F4FB8420ED08F4FB0
:101C9000B8420BD0B0F1804F08D08D4FB84205D07C
:101CA0008C4FB84202D08C4FB84206D14FF6DF7746
:101CB000394046F01007394305E04FF65F77394069
:101CC00044F01007394302830184F0BD028B4FF6C4
:101CD000F3731A400283028B0A4302837047F0B504
:101CE0000C46154600220021068C4FF6FE773E403A
:101CF0000684028B018C4FF60C7632407E1C06EA7D
:101D000003162E433243704EB0420ED06F4EB04297
:101D10000BD0B0F1804F08D06D4EB04205D06D4E63
:101D2000B04202D06C4EB04206D14FF6FD76314043
:101D300044F00106314305E04FF6F576314044F0BA
:101D40000106314302830184F0BD70B505460C469F
:101D50005D4885420ED05D4885420BD0B5F1804F7D
:101D600008D05B48854205D05A48854202D05A487F
:101D7000854200D100E000BF208850B92389A288A5
:101D800061882846FFF7ABFFE1882846FFF79EFFF2
:101D900025E0208804280AD12389A2886188284662
:101DA000FFF753FFE1882846FFF742FF17E020883E
:101DB00008280AD12389A28861882846FFF7FBFEFC
:101DC000E1882846FFF7EEFE09E02389A2886188B2
:101DD0002846FFF7A6FEE1882846FFF795FE70BD6E
:101DE0002DE9F04105460C4600260127608808B918
:101DF000022600E00026A088012801D1022700E089
:101E000001272088A0B92389A28861882846FFF786
:101E100066FFE1882846FFF759FF23893A46314695
:101E20002846FFF712FFE1882846FFF701FF13E07D
:101E30002389A28861882846FFF707FFE1882846A2
:101E4000FFF7F6FE23893A4631462846FFF747FF5B
:101E5000E1882846FFF73AFFBDE8F0810A884B8801
:101E60001A438B881A43CB881A430B891A434B8930
:101E70001A438B891A43A0F8442070474FF6FF712C
:101E8000818000210180C180418001727047002162
:101E9000018041808180C180018141818181C18136
:101EA0007047002101804180012181800021C18093
:101EB000018170470021018041808180C1800181C2
:101EC0004181818170470000002C014000340140B5
:101ED0000004004000080040000C004021B10288CE
:101EE00042F00102028004E002884FF6FE731A40BD
:101EF0000280704731B1B0F8442042F40042A0F8AB
:101F0000442005E0B0F84420C2F30E02A0F84420BB
:101F100070471AB183890B43838102E083898B4325
:101F2000838170478182704741EA0203A0F84830FC
:101F300070471AB183890B43838102E083898B4305
:101F40008381704701894FF6F87211400181704713
:101F50000A46002101894FF68F7319401143018110
:101F6000704730B504460D4629462046FFF7F0FF7E
:101F7000208940F00700208130BD2DE9F041044662
:101F80000D4616461F46602D06D13B4601223146BE
:101F90002046FFF75AFE05E03B4601223146204627
:101FA000FFF79DFE29462046FFF7D2FF208940F02B
:101FB00007002081BDE8F08130B50C460021018981
:101FC000C9B24FF6FF7505EA03251543254329439A
:101FD000018130BD2DE9F04105460E461746984671
:101FE000002443463A4631462846FFF7E5FF2C8950
:101FF0004FF6F870044044F007044FF68F70044029
:1020000044F070042C81BDE8F081F0B504460D4623
:1020100016461F463B46324629462046FFF7CCFF70
:10202000208940F480402081F0BD01858282704784
:102030000A46002101884FF68F7319401143018031
:102040007047F0B50C4615461E46002100220023BD
:102050000189028B038C4FF6F877394021434FF604
:10206000FC473A4040F201173A434FF6DD773B40D8
:102070004FF6FF7707EA06172F433B4301810283A0
:102080000384F0BD0A460021018B4FF68F7319407F
:102090001143018370470A460021018B48F6FF7304
:1020A00019404FF6FF7303EA022319430183704777
:1020B0000A460021818B4FF68F73194011438183AB
:1020C00070470A460021818B48F6FF7319404FF68E
:1020D000FF7303EA022319438183704721B1028809
:1020E00042F08002028004E002884FF67F731A40BB
:1020F0000280704721B1828842F00402828004E0AD
:1021000082884FF6FB731A408280704721B1828823
:1021100042F00802828004E082884FF6F7731A408A
:102120008280704721B1828842F00102828004E0FF
:1021300082884FF6FE731A40828070470A4600215B
:10214000018B4FF6F77319401143018370470A461C
:102150000021018B4FF2FF7319404FF6FF7303EA22
:1021600002231943018370470A460021818B4FF6F1
:10217000F77319401143818370470A460021818B10
:102180004FF2FF7319404FF6FF7303EA022319431E
:10219000818370470A460021018B4FF6FB7319407B
:1021A0001143018370470A460021018B4FF6FF332C
:1021B00019404FF6FF7303EA022319430183704766
:1021C0000A460021818B4FF6FB731940114381832E
:1021D00070470A460021818B4FF6FF3319404FF6B6
:1021E000FF7303EA02231943818370470A460021E3
:1021F000018B4FF67F7319401143018370470A46E4
:102200000021018BC1F30E014FF6FF7303EA022395
:102210001943018370470A460021818B4FF67F7373
:1022200019401143818370470A460021818BC1F315
:102230000E014FF6FF7303EA0223194381837047AF
:102240000A460021018C4FF6FD73194011430184A9
:1022500070470A460021018C4FF6F773194011436D
:10226000018470470A460021018C4FF6DF73194044
:102270004FF6FF7303EA02131943018470470A46BD
:102280000021018C4FF67F7319404FF6FF7303EA6C
:1022900002131943018470470A460021018C4FF64E
:1022A000FF5319404FF6FF7303EA022319430184D9
:1022B00070470A460021018C4FF2FF7319404FF618
:1022C000FF7303EA02231943018470470A46002181
:1022D000018C4DF6FF7319404FF6FF7303EA02338A
:1022E00019430184704730B5002301248C40A3B208
:1022F000048C9C430484048C02FA01F5ADB22C4397
:10230000048430BD30B5002304248C40A3B2048C77
:102310009C430484048C02FA01F5ADB22C4304847E
:1023200030BD70B503460020002418461830012542
:102330008D40ACB21D8CA5431D8409B1082909D17B
:1023400000EB6100056825F0700505600568154320
:1023500005600EE00D1FC5F34E052844056825F401
:10236000E045056005684FF6FF7606EA022635432C
:10237000056070BD21B1028842F00202028004E0D3
:1023800002884FF6FD731A400280704721B102881F
:1023900042F00402028004E002884FF6FB731A4008
:1023A0000280704721B1828842F08002828004E07E
:1023B00082884FF67F731A408280704702884FF6FA
:1023C000F7731A40028002880A43028070478288AD
:1023D0004FF68F731A40828082880A43828070474A
:1023E00002894FF6F8731A40028102890A4302817A
:1023F000704702894FF67F731A40028102890A43AF
:10240000028170478184704781857047818670475B
:102410000187704781877047A0F840107047028895
:102420004FF6FF431A40028002880A430280704739
:102430000146888E70470146088F70470146888F95
:1024400070470146B1F8400070470146888C7047DC
:102450000146088D704702460020138A0B400BB1DD
:10246000012000E000207047CA430282704730B567
:102470000246002000230024158A05EA01039589FD
:1024800005EA010413B10CB1012000E0002030BDC9
:10249000CA4302827047000010B50446FB488442DC
:1024A00009D101218803FEF719FF00214FF4804074
:1024B000FEF714FF32E0F648844209D101214804B6
:1024C000FEF719FF00214FF40030FEF714FF25E05E
:1024D000F048844209D101218804FEF70CFF002155
:1024E0004FF48020FEF707FF18E0EB48844209D143
:1024F0000121C804FEF7FFFE00214FF40020FEF783
:10250000FAFE0BE0E548844208D101210805FEF7F8
:10251000F2FE00214FF48010FEF7EDFE10BD2DE914
:10252000F04786B005460E460024A24600BFA146ED
:102530000027B08900B100BF2F462C8A4CF6FF70EF
:102540000440F08804432C82AC894EF6F31004401A
:10255000B08831890843718908430443AC81AC8A4F
:102560004FF6FF400440B0890443AC8201A8FEF757
:102570002EFEC648874202D1DDF810A001E0DDF84A
:102580000CA0A88900F4004040B10AEBCA0000EB9F
:102590000A1031684900B0FBF1F807E00AEBCA0005
:1025A00000EB0A1031688900B0FBF1F86420B8FB39
:1025B000F0F004012009642101FB1089A88900F4CE
:1025C000004040B1322000EBC900B0FBF1F000F058
:1025D0000700044308E0322000EB09106421B0FB3F
:1025E000F1F000F00F0004432C8106B0BDE8F08745
:1025F0004FF41651016000218180C18001810C21BE
:10260000418100218181704710B502460020108A67
:102610004FF2FF0318400B884C8823438C882343D8
:10262000CC8823431843108210BD002101804180D3
:102630008180C180704721B1828942F40052828139
:1026400004E082894DF6FF731A4082817047F0B52D
:102650000346002400260025002040F66A17B942F0
:1026600000D100BF1846C1F3421401F01F06012734
:1026700007FA06F5012C01D10C3004E0022C01D13F
:10268000103000E014301AB107682F43076002E0F1
:102690000768AF430760F0BD1AB1838A0B4383829A
:1026A00002E0838A8B4383827047028A4FF6F0737D
:1026B0001A400282028A0A430282704782894FF2DC
:1026C000FF731A40828182890A438281704721B157
:1026D000828942F00202828104E082894FF6FD7312
:1026E0001A4082817047028A4FF6DF731A400282D5
:1026F000028A0A430282704721B1028A42F4804270
:10270000028204E0028A4BF6FF731A40028270478D
:10271000C1F308028280704701468888C0F3080030
:102720007047818941F0010181817047028BD2B2EB
:102730000283028B42EA012202837047028B02F479
:102740007F420283028B0A430283704721B1828A4F
:1027500042F02002828204E0828A4FF6DF731A4040
:102760008282704721B1828A42F01002828204E0A4
:10277000828A4FF6EF731A408282704721B1828AB3
:1027800042F00802828204E0828A4FF6F7731A4010
:102790008282704721B1828942F40042828103E043
:1027A0008289C2F30E028281704721B1828A42F48B
:1027B0000062828204E0828A4FF2FF731A408282B2
:1027C0007047828A4FF6FB731A408282828A0A43DC
:1027D0008282704721B1828A42F00202828204E042
:1027E000828A4FF6FD731A408282704702460020AB
:1027F000B1F5007F00D100BF13880B400BB1012061
:1028000000E00020704701F40072B2F5007F00D1B3
:1028100000BFCA430280704770B5024600240023FF
:102820000025002040F66A16B14200D100BFC1F376
:10283000421501F01F03012606FA03F3012D02D110
:102840009689334006E0022D02D1168A334001E01A
:10285000968A33400C12012606FA04F41688344096
:1028600013B10CB1012000E0002070BD10B50022B2
:10287000002340F66A14A14200D100BF0A120124CD
:102880009440A3B2DC43048010BD00000038014036
:102890000044004000480040004C00400050004010
:1028A0000CB50020019000906C48006840F4803026
:1028B0006A49086000BF6948006800F40030009071
:1028C0000198401C0190009818B90198B0F5A06FCC
:1028D000F1D16248006800F4003010B1012000908E
:1028E00001E0002000900098012843D15C48006876
:1028F00040F010005A4908600846006820F00300C4
:1029000008600846006840F00200086053484068CC
:10291000524948600846406848600846406840F4AC
:10292000806048600846406820F47C104860084693
:10293000406840F4E81048600846006840F0807045
:10294000086000BF4548006800F000700028F9D01A
:102950004248406820F0030040494860084640680B
:1029600040F00200486000BF3C48406800F00C00A6
:102970000828F9D10CBD10B5FFF792FF10BD10B5B6
:102980003648006840F00100344908600846406855
:1029900034490840314948600846006832490840D7
:1029A0002E4908600846006820F480200860084628
:1029B000406820F4FE0048604FF41F008860FFF775
:1029C000DAFF4FF000602949086010BD10B5002102
:1029D00000200022214B5B6803F00C0121B1042987
:1029E00006D0082928D107E0214B224C236027E09C
:1029F0001F4B204C236023E0184B5B6803F47010DE
:102A0000164B5B6803F48032022303EB904022B93B
:102A1000194B4343174C23600DE0104B5B6803F4E4
:102A2000003323B1144B4343124C236003E0104B9B
:102A30004343104C236003E00D4B0E4C236000BF5A
:102A400000BF064B5B68C3F303130C4CE15C094BFE
:102A50001B68CB40074C236010BD000000100240F3
:102A6000002002400000FFF8FFFFF6FE08ED00E046
:102A700000127A001C00002000093D002000002008
:102A80000948804709480047FEE7FEE7FEE7FEE702
:102A9000FEE7FEE7FEE7FEE7FEE7FEE7044805493E
:102AA000054A064B704700007F290008ED0000082A
:102AB000A0080020A00E0020A00A0020A00A0020EC
:102AC00010B504462CB90120F64909680882002097
:102AD00010BDF549096808688047F24800680A3067
:102AE000F6E710B5EF480068C078F04949788842A9
:102AF00013DCEC480068807878B9EA480068808880
:102B000058B9E8480068C078E64909688872E6491B
:102B1000096848688047002010BD0220FCE710B516
:102B200004462CB90120DF4909680882002010BD45
:102B3000DD49096888688047DA4800680C30F6E7A4
:102B400010B5D84B1B68D978D64B1B685879D84B31
:102B50001B689A6990470446D2480068807AE8B1B9
:102B60003CB9D0480068007918B9CE480068807830
:102B700008B1022010BD8CB9CB490968C8688047EC
:102B8000C84800684079C7490968C872C5480068E4
:102B9000C078C449096808730020EBE70220E9E720
:102BA00010B504462CB90220BE49096808820020ED
:102BB00010BD0020BF490880BA480068007800F0C6
:102BC0007F0018BBB7490968487A00F0200131B18D
:102BD000B849097841F00201B64A117005E0B549DB
:102BE000097801F0FD01B34A117000F0400131B1E4
:102BF000B049097841F00101AE4A117005E0AD49D4
:102C0000097801F0FE01AB4A11703AE0A54800686E
:102C1000007800F07F00012801D1A648C8E7A1484C
:102C20000068007800F07F00022828D19D4A1268D1
:102C3000517901F00F0001F080027AB19E4B03EB55
:102C40008002D2F8002C02F03002102A16D1994AE4
:102C5000127842F00102974B1A700FE0964B03EB8B
:102C60008002D2F8002C02F44052B2F5805F05D108
:102C7000904A127842F001028E4B1A7001E0002057
:102C800096E789490968086980478A4890E72DE9ED
:102C9000F04784480068007800F07F08B8F1000F22
:102CA0000AD180480068407A00F0DF007D49096859
:102CB00048720020BDE8F087B8F1020F7ED1794854
:102CC0000068408818B977480068007908B1022088
:102CD000F0E7DFF8D89173480068477927F080055E
:102CE0002C4670480068407900F0800038B1724985
:102CF00001EB8400D0F8000C00F0300606E06E49CD
:102D000001EB8400D0F8000C00F4405699F8000064
:102D1000A84204D91EB163480068807A08B902202D
:102D2000C8E707F0800080B1634901EB8400D0F868
:102D3000000C00F0300010284BD1E0B201F01DF87B
:102D4000E0B2302100F09FFE43E05B4901EB8400DC
:102D5000D0F8000C00F44050B0F5805F39D1E4B9F0
:102D6000564A92F82C10E0B201F091F8524A02EB68
:102D70008401D1F8001C4BF68F7201EA020080F446
:102D8000805080F4005040F4004141F080014A4BF3
:102D900003EB8402C2F8001C1BE0E0B200F0D5FF98
:102DA000454A02EB8401D1F8001C4BF68F7201EA10
:102DB000020080F4805080F4005000E00FE040F406
:102DC000004141F080013C4B03EB8402C2F8001C3F
:102DD00000BF354909684869804700206AE700BF9D
:102DE000022067E72DE9F0412E480068467926F079
:102DF00080073C462B480068407900F0800038B1DD
:102E00002D4901EB8400D0F8000C00F0300506E0FD
:102E1000294901EB8400D0F8000C00F44055234808
:102E20000078A04208D91F480068408820B91DB129
:102E30001C480068807A10B90220BDE8F08106F0D5
:102E40008000A0B11C4A02EB8401D1F8001C48F6B6
:102E5000BF7201EA020080F0100040F4004141F02E
:102E60008001154B03EB8402C2F8001C14E0124AE7
:102E700002EB8401D1F8001C4BF68F7201EA0200CC
:102E800080F4805040F4004141F080010A4B03EB94
:102E90008402C2F8001C00BF0349096888698047A2
:102EA0000020CAE73800002044000020AA000020CB
:102EB0003C0000203000002000500040AC0000200A
:102EC00010B5F7480068407A40F02000F4490968DE
:102ED0004872F4490968C8698047002010BD10B5E0
:102EE0000246EF480068438A32B98888C01AEC4C21
:102EF00024682082002010BD08681844FBE72DE9F3
:102F0000F041E748006800F110042688A068C0B1CD
:102F1000BEB1A588B54200D93546A8B2A168884798
:102F200007462088401B208060882844608000205D
:102F300000F07FFF8046AAB24146384600F03EFDD1
:102F400000BF208850B14FF44050D749088000217D
:102F5000084600F07AFF3020D44908802088A188F4
:102F6000884204DB0320CE490968087218E02088F3
:102F7000002804DD0520CA490968087210E020888D
:102F800070B90620C649096808720021C84800685F
:102F900080B2801CC74A42F810103020C349088014
:102FA000BDE8F0812DE9F047BD48006800F110054B
:102FB0002E88BB480068077AD6B9042F18D1BE48BE
:102FC000007801280FD10021B948006880B2801C28
:102FD000B84A42F810103020B449088000BF0020E1
:102FE000B549087003E007271020B049088027E0A2
:102FF000AC88A64201D8042000E002200746B44273
:1030000000D93446A0B2A96888478046002000F065
:1030100005FF8146A2B24946404600F0B5FCA1B288
:10302000002000F012FF2888001B288068882044B8
:10303000688030209D49088000029B49088000BFBD
:10304000974909680F72BDE8F08770B50226944869
:103050000068447892480068007800F07F000028FB
:1030600044D1092C03D1FFF73CFD06465FE0052C57
:1030700014D18B480068C0787F280BDC8848006832
:10308000807838B986480068808818B98448006814
:10309000807A08B1082565E0002648E0032C0ED1AF
:1030A0007F480068C078012807D17D480068808883
:1030B00018B9FFF705FF064639E0022637E0012C74
:1030C00035D177480068C07801280DD17448006870
:1030D000808848B972480068407A00F0200018B132
:1030E000FFF7D5FD064622E0022620E06C48006886
:1030F000007800F07F00012805D10B2C17D1FFF7D5
:103100001FFD064613E066480068007800F07F0067
:1031100002280BD1012C03D1FFF7B9FD064606E0CA
:10312000032C04D1FFF75EFE064600E002264EB1F6
:10313000E0B2624A1268516988470646032E01D1FF
:1031400009250FE00EB108250CE00625002158489E
:10315000006880B2801C574A42F810103020534952
:10316000088000BF4E4909680D7270BD2DE9F84F07
:103170004B48006845780027BA46062D1BD14848C1
:103180000068007800F07F00002813D144490968E6
:103190008878012803D149490968CF690AE00228E3
:1031A00003D1464909680F6A04E0032802D1434964
:1031B00009684F6AADE0002D67D139480068408842
:1031C000002862D136480068C08802285DD13448A2
:1031D00000680079002858D131480068007800F074
:1031E0007F0030B92E480068808810B9AFF24F6771
:1031F0008FE02B480068007800F07F00012811D193
:103200002749096848792D4909688A69002190474A
:1032100000287ED122480068807A002879D0AFF259
:103220007F6776E01E480068007800F07F00022883
:103230006FD11B480068407900F00F0618480068FD
:10324000407900F0700916480068407900F080006D
:1032500038B11B4901EB8600D0F8000C00F03008B3
:1032600006E0174901EB8600D0F8000C00F4405846
:1032700014480078B0424CD9B9F1000F49D1B8F1E7
:10328000000F46D0AFF2E76743E0082D1CD1044899
:103290000068007800F07F00D8BBAFF2DB7738E041
:1032A0003800002044000020480000204A00002090
:1032B000505C004000600040320000203C000020D4
:1032C00000500040AA0000200A2D22D1C548006805
:1032D000007800F07F0001281BD1C2480068807A86
:1032E000B8B1C0480068408898B9BE480068007905
:1032F00078B9BC480068C08801280AD1B949096872
:103300004879B94909688A690021904708B9AFF23C
:10331000F17757B1B3480068A0F812A0B14800682F
:1033200087610020B84700240FE0AE4A1268507849
:10333000AD4A1268116988470446032C05D109205B
:10334000A84909680872BDE8F88FA6480068008A95
:103350004FF6FF71884204D10920A249096808721A
:10336000F1E7022C03D09F480068008A20B90820AA
:103370009C4909680872E6E79A480068007800F0FE
:103380008000E0B397480068C088009095480068C6
:10339000008A0099884204D99249009809680882F5
:1033A00023E090480068008A8E490968C9888842ED
:1033B0001BDA8C480068008A8B49096891F82C1048
:1033C000884203DA0020894908700EE085480068C9
:1033D000008A8549096891F82C1090FBF1F201FBF5
:1033E000120010B90120814908707F48006890F8E8
:1033F0002C107C4800688182FFF7D4FD07E0FFE7CE
:10340000032078490968087200037949088000BFE1
:1034100099E710B5774890F82C10002000F037FDA0
:1034200070480068007A082805D140027049088079
:103430001020714908806B480068007A092801D182
:10344000012010BD0020FCE738B501246B4800685E
:1034500080B2001D6A4931F8100080B201EB4000D3
:10346000009060480068007A092832D000980078FF
:103470005C49096808700098401C0090009800782A
:103480005849096848700098401C0090009800EB6B
:1034900044000090009931F8020B009100F0A0FE6A
:1034A000504909684880009800EB4400009000995A
:1034B00031F8020B009100F093FE4A4909688880B8
:1034C000009800EB44000090009800884549096886
:1034D000C880012043490968087242480068C088D2
:1034E00010B9FFF7B2FD01E0FFF740FEFFF791FFD3
:1034F00038BD30B50146434B1A78002014E003066E
:10350000414C04EB9353D3F8003C48F68F742340AE
:1035100048F280042343C4B2234304063A4D05EB2A
:103520009454C4F8003C401C9042E8D341F080031E
:10353000324C241F236030BD10B52A480068047A3D
:10354000022C01D0042C05D1FFF72CFD2548006882
:10355000047A1CE0062C19D122480068407805281E
:103560000ED120480068007800F07F0040B91D4966
:103570000968C878FFF7BDFF24490968086A8047D1
:103580001949096888688047082400E0082415491B
:1035900009680C72FFF73DFF10BD10B511480068B7
:1035A000047A022C01D0042C01D1082412E0032C4F
:1035B00001D0052C05D1FFF7A2FC0A480068047A67
:1035C00008E0072C05D108490968C8688047082425
:1035D00000E00824034909680C72FFF71AFF10BDC8
:1035E00070470000380000203C000020320000201E
:1035F00048000020AC0000204A000020505C004041
:1036000000600040AA00002000500040440000205C
:1036100010B5084808490860022009680872074880
:1036200007490860074808490860054909680868AB
:10363000804710BDAC01002038000020AC00002005
:103640003C000020DC0000204400002008B50020E1
:10365000009022E1C448008800F00F00C3490870C0
:103660000846007800287CD1C1480068C14908801C
:103670000846008800F03000BF490880BD48008837
:1036800000F44050BB490880B94909684BF6BF7245
:1036900001EA020080F4005080F0200040F4004174
:1036A00041F08001B24A1160AF48008800F010007C
:1036B00090BB1046006848F60F710840114608603C
:1036C000FFF73AFFAA4909684BF6BF7201EA020008
:1036D000A849098801F4805109B180F48050A549B6
:1036E000098801F4005109B180F40050A249098809
:1036F00001F0100109B180F010009F49098801F024
:10370000200109B180F0200081B241F4004141F074
:103710008001974A116008BDFFE79548006880B2B4
:103720000090BDF8000000F40060B0B3904800685D
:10373000C0F30E0048F68F7108408D490860FFF70E
:1037400083FE8B4909684BF6BF7201EA0200894982
:10375000098801F4805109B180F4805085490988B5
:1037600000E056E001F4005109B180F400508249B4
:10377000098801F0100109B180F010007E49098824
:1037800001F0200109B180F0200081B241F4004134
:1037900041F08001764A1160BDE7FFE7BDF8000007
:1037A00000F40040002878D071480068C0F30E0093
:1037B00048F68F7108406E490860FFF7EEFE6C49CD
:1037C00009684BF6BF7201EA02006A49098801F4F0
:1037D000805109B180F480506649098801F4005194
:1037E00009B180F400506449098801F0100109B161
:1037F00080F010006049098801F0200109B180F0D3
:10380000200081B241F4004141F08001584A11602A
:1038100081E756480078594901EB8000D0F8000C48
:1038200080B20090BDF8000000F40040C0B14F48E5
:10383000007801EB8000D0F8000CC0F30E0048F6D1
:103840008F710840494909784C4A02EB8101C1F85F
:10385000000C46490978491E494A52F82100804720
:10386000BDF8000000F08000B8B14048007843493E
:1038700001EB8000D0F8000C48F60F7108403B497E
:1038800009783E4A02EB8101C1F8000C37490978FA
:10389000491E3C4A52F821008047354844300068B0
:1038A00080B23149088000F4004000287FF4D2AE95
:1038B00000BF30E710B500244AE047F6FF702C49FE
:1038C000443108602848008800F00F00274908703C
:1038D00008460078294901EB8000D0F8000C84B23A
:1038E00004F40040C8B12148007801EB8000D0F812
:1038F000000CC0F30E0048F68F7108401B49097890
:103900001E4A02EB8101C1F8000C18490978491ED2
:103910001B4A52F8210080471AE004F08000B8B139
:1039200012480078154901EB8000D0F8000C48F6E9
:103930000F7108400D490978104A02EB8101C1F866
:10394000000C0A490978491E0E4A52F821008047A6
:1039500007484430006880B20349088000F4004002
:103960000028AAD110BD000068000020340000200B
:10397000005C0040480000204A0000200050004049
:10398000880000206C000020F0B5144604F1010C02
:103990004FEA6C07DFF848C00CEB41033D460AE0F4
:1039A0000678401C90F800C046EA0C2223F8022B4F
:1039B0009B1C401C6D1E002DF2D1F0BDF0B5561CB5
:1039C0007510074E06EB41042B4605E034F8047BE6
:1039D00020F8017B401C5B1E002BF7D1F0BD0000DE
:1039E00000600040FA4908607047F948006880B2FA
:1039F0007047F749091D08607047F548001D0068C9
:103A000080B27047F2480830006880B27047F049D1
:103A10000C3108607047EE480C30006880B2704787
:103A20004FF6F8710140EA4A103211607047E848D9
:103A30001030006880B27047E64B03EB8002C2F89A
:103A4000001C70470146E34A02EB8100D0F8000CED
:103A500080B2704710B5DF4B03EB8002D2F8002C28
:103A600048F68F131A400A43DA4C04EB8003C3F87C
:103A7000002C10BD0146D74A02EB8100D0F8000CA3
:103A800000F4C060704730B5D24C04EB8003D3F82B
:103A9000003C48F6BF7403EA040201F010030BB1C6
:103AA00082F0100201F020030BB182F0200242F4F8
:103AB000004343F08003C74D05EB8004C4F8003C8D
:103AC00030BD30B5C34C04EB8003D3F8003C4BF65B
:103AD0008F7403EA040201F480530BB182F4805224
:103AE00001F400530BB182F4005242F4004343F05E
:103AF0008003B84D05EB8004C4F8003C30BD30B500
:103B000003460C461846FFF79DFF0546012C07D1DA
:103B100025F48050AF4A02EB8301C1F8000C08E0A5
:103B2000022C06D125F01000AA4A02EB8301C1F84D
:103B3000000C30BD0146A74A02EB8100D0F8000C12
:103B400000F0300070470146A24A02EB8100D0F835
:103B5000000C00F44050704710B59E4B03EB800200
:103B6000D2F8002C48F6BF7302EA030181F010017D
:103B700081F0200141F4004242F08002954C04EBB8
:103B80008003C3F8002C10BD10B5924B03EB8002EC
:103B9000D2F8002C4BF68F7302EA030181F48051B6
:103BA00081F4005141F4004242F08002894C04EB60
:103BB0008003C3F8002C10BD864A02EB8001D1F8C7
:103BC000001C41F4807148F68F72114048F2800267
:103BD0001143804B03EB8002C2F8001C70477D4A02
:103BE00002EB8001D1F8001C48F68F62114048F2C8
:103BF00080021143774B03EB8002C2F8001C704730
:103C0000744A02EB8001D1F8001C48F68F62114023
:103C100048F2800211436F4B03EB8002C2F8001C94
:103C200070476C4A02EB8001D1F8001C41F48071AE
:103C300048F68F72114048F280021143654B03EB46
:103C40008002C2F8001C7047624A02EB8001D1F882
:103C5000001C41F4807148F68F72114048F28002D6
:103C600011435C4B03EB8002C2F8001C7047594AB9
:103C700002EB8001D1F8001C48F68F62114048F237
:103C800080021143534B03EB8002C2F8001C7047C3
:103C90000146504A02EB8100D0F8000C00F03000E1
:103CA000102801D1012070470020FCE70146494A55
:103CB00002EB8100D0F8000C00F44050B0F5805FBA
:103CC00001D1012070470020FCE7424A02EB80014D
:103CD000D1F8001CC1F30E0148F68F7211403D4B24
:103CE00003EB8002C2F8001C70473A4A02EB8001E5
:103CF000D1F8001C48F60F721140364B03EB8002DE
:103D0000C2F8001C7047334A02EB8001D1F8001C56
:103D100048F68F7211404CF2800211432D4B03EB99
:103D20008002C2F8001C70472A4A02EB8001D1F8D9
:103D3000001C48F68F72114048F2C0021143254B17
:103D400003EB8002C2F8001C7047224A02EB80019C
:103D5000D1F8001C01F4804171B102EB8001D1F86F
:103D6000001C48F68F7211404CF280021143194B2F
:103D700003EB8002C2F8001C7047164A02EB800178
:103D8000D1F8001C01F0400171B102EB8001D1F8C3
:103D9000001C48F68F72114048F2C00211430D4BCF
:103DA00003EB8002C2F8001C704710B5094B03EB0F
:103DB0008002D2F8002C48F68F731A4048F2800334
:103DC0001A430A43034C04EB8003C3F8002C10BDD4
:103DD000405C0040005000400146FC4A02EB81007C
:103DE000D0F8000C00F00F00704710B54A105200D8
:103DF000F74B1B689BB203EBC003F64C44F813204F
:103E000010BD10B54A105300F14A126892B202EB8D
:103E1000C002121DEF4C44F8123010BD0146EC48B0
:103E2000006880B200EBC100EA4A32F8100080B2AC
:103E300070470146E648006880B200EBC100001DF3
:103E4000E44A32F8100080B27047E14A126892B238
:103E500002EBC002921CDF4B43F81210704702467F
:103E60003E290BDD481101F01F030BB9431E98B228
:103E70004FF4004343EA8023136007E0481001F049
:103E800001030BB1431C98B283021360704710B555
:103E90000246CF48006880B200EBC200801DCD4CC6
:103EA00004EB40033E290BDD481101F01F040CB95F
:103EB000441EA0B24FF4004444EA80241C6007E092
:103EC000481001F001040CB1441CA0B284021C6033
:103ED00010BD0146BE48006880B200EBC100801CE6
:103EE000BC4A32F81000C0F3090070470146B848D8
:103EF000006880B200EBC100801DB64A32F81000A5
:103F0000C0F30900704730B54B105B00B04C24681B
:103F1000A4B204EBC004AF4D45F8143053105C005C
:103F2000AB4B1B689BB203EBC0031B1D45F8134052
:103F300030BD10B54A105200A54B1B689BB203EB75
:103F4000C003A44C44F8132010BD10B54A10530010
:103F50009F4A126892B202EBC002121D9D4C44F8B7
:103F6000123010BD01469A48006880B200EBC100D3
:103F7000984A32F8100080B27047014694480068B1
:103F800080B200EBC100001D924A32F8100080B2EE
:103F9000704730B50B46012B1FD18D49096889B296
:103FA00001EBC001891C8B4D05EB41043E2A0BDD62
:103FB000511102F01F050DB94D1EA9B24FF4004575
:103FC00045EA8125256007E0511002F001050DB199
:103FD0004D1CA9B28D0225600AE0022B08D17C4954
:103FE000096889B201EBC001891C7A4C44F81120A0
:103FF000012B1FD17649096889B201EBC001891DE7
:10400000744D05EB41043E2A0BDD511102F01F05F2
:104010000DB94D1EA9B24FF4004545EA8125256032
:1040200007E0511002F001050DB14D1CA9B28D023F
:1040300025600AE0022B08D16549096889B201EBC5
:10404000C001891D634C44F8112030BD30B50346D2
:1040500001291FD15E48006880B200EBC300801CBC
:104060005C4D05EB40043E2A0BDD501102F01F05AC
:104070000DB9451EA8B24FF4004545EA80252560DC
:1040800007E0501002F001050DB1451CA8B28502F1
:1040900025600AE0022908D14D48006880B200EB93
:1040A000C300801C4B4C44F8102030BD30B5034693
:1040B00001291FD14648006880B200EBC300801D73
:1040C000444D05EB40043E2A0BDD501102F01F0564
:1040D0000DB9451EA8B24FF4004545EA802525607C
:1040E00007E0501002F001050DB1451CA8B2850291
:1040F00025600AE0022908D13548006880B200EB4B
:10410000C300801D334C44F8102030BD01463048B8
:10411000006880B200EBC100801C2E4A32F810000B
:10412000C0F30900704701462948006880B200EBDF
:10413000C100801D274A32F81000C0F30900704703
:1041400001462348006880B200EBC100801D214A6F
:1041500032F8100000F47C4008B1012070471C4880
:10416000006880B200EBC100801C1A4A32F81000CF
:10417000C0F3090008B10220F0E70020EEE710B517
:10418000012910D1114B03EB8002D2F8002C48F624
:104190008F731A4048F2C0031A430C4C04EB80039F
:1041A000C3F8002C11E002290FD1084B03EB800269
:1041B000D2F8002C48F68F731A404CF280031A4351
:1041C000024C04EB8003C3F8002C10BD00500040EB
:1041D000505C004000600040024641EA0220704707
:1041E0000146CAB20B1243EA0220704700201D4963
:1041F00008604FF43F401C49088008460088194970
:10420000091F0860002070472DE9F04104460E4662
:10421000154604F07F00FFF701FE0746AAB23946B3
:104220003046FFF7B1FBA9B204F07F00FFF70DFEA7
:104230000020BDE8F0812DE9F04104460E4600253E
:1042400004F07F00FFF752FE054604F07F00FFF701
:10425000F0FD07462A4639463046FFF7AFFB2846B1
:10426000BDE8F081445C004042000020704701201E
:1042700001490870704700006600002010B53748FB
:104280000068374908800846008800F40040354936
:104290000988084008B1FFF7D9F93148008800F4CF
:1042A000806030490988084030B14FF6FF302B4913
:1042B00008602D49486880472948008800F400506C
:1042C00028490988084018B14DF6FF702349086055
:1042D0002348008800F4805022490988084030B102
:1042E0004EF6FF701D490860002000F0D6F91C480A
:1042F000008800F400601B490988084060B11B4831
:10430000007810B100F0A9F902E0022000F0C5F930
:104310004FF2FF70114908601148008800F40070E6
:1043200010490988084040B14FF6FF500B4908601A
:104330000F480078401C0E4908700948008800F4B6
:10434000807008490988084030B14FF6FF60034982
:104350000860072000F0A1F910BD0000445C004097
:104360006800002042000020AC0000204401002032
:104370006A00002010B500219548FCF74DF8002098
:1043800094490968887200F03FF9FFF72FFF002079
:104390009149086010BD10B500208E4909688872E7
:1043A0008C490968C8728D48C0798A490968487281
:1043B0000020FFF735FB4FF400710020FFF74AFBA8
:1043C00020210020FFF75FFB18210020FFF719FDD7
:1043D00058210020FFF709FD0020FFF711FC80485D
:1043E00090F82C100020FFF752FD7D4890F82C101B
:1043F0000020FFF72AFD0020FFF7C6FB4FF4C06145
:104400000120FFF727FB4FF480710120FFF7EDFC3F
:104410004FF4A0710120FFF7F4FC3E210120FFF7CB
:1044200014FD3E210120FFF732FD4FF440510120E1
:10443000FFF747FB30210120FFF725FB0020FFF7A6
:1044400058F801206449086010BD62480068807A0D
:1044500010B1052060490860704704205E4908607B
:10446000704710B55F480078092804D100205D49E5
:10447000087000F02AFB10BD7047014629B90120E1
:10448000544A12681082002070475748FCE710B564
:10449000044656492046FEF722FD10BD10B50446DD
:1044A00053492046FEF71BFD10BD70B5044600259C
:1044B000062C1AD147480068007800F07F000128D8
:1044C00013D144480068407978B942480068807840
:1044D000222802D1AFF23B052BE03E4800688078ED
:1044E000212826D1AFF2590523E03A480068007828
:1044F00000F07F0021281CD1012C07D0032C02D012
:10450000092C14D109E0AFF28D0511E031480068A3
:104510008078032800D1374D0AE02E480068807863
:10452000032803D109202F490870334D00E000BF54
:1045300000BF0DB9022070BD2648006885610021CA
:104540002448006841820020A8470020F3E7214862
:104550000068C178244801600020704700B5024619
:104560001C480068007800F07F00212804D10B2A45
:1045700002D1FFF7ECFF00BD0220FCE710B50446B6
:104580001E492046FEF7ABFC10BD10B504461C4981
:104590002046FEF7A4FC10BD70B505460D48006826
:1045A000C478042C01DB002070BD164800EBC40168
:1045B0002846FEF794FCF7E70246002901DD0220B9
:1045C0007047002A01DD0220FAE70020F8E700002A
:1045D0004C00002038000020400100206C6D0008D5
:1045E000AC000020A8000020A4000020180100203A
:1045F000100100206D480008EB4900080001002070
:10460000080100202001002010B50120FBF7B8FEB2
:1046100001244C48046000204B490880084600886B
:10462000484908600020091D08604FF4E0504649E1
:1046300008800846008843490860002010BD10B576
:104640000120404908600020091D0860FBF798FE22
:1046500003203C490860002010BD10B539480068AF
:1046600084B244F0080437480460006884B244F01F
:10467000040434480460FBF705FE10BD10B5314852
:10468000006884B224F004042E480460FBF701FEA5
:104690004FF43F402B49086010BD70B50546072D0B
:1046A00001D02A48057029480078082841D2DFE85F
:1046B00000F0040A1016212E4142FFF7DFFF06200A
:1046C000224908703BE0FFF7D9FF04201F4908701A
:1046D00035E002201D494870032008702FE01B4878
:1046E0004078401E194948700846407808B90420AF
:1046F000087024E01348006884B244F010041148A4
:1047000004600520114908700A20487017E00F481E
:104710004078401E0D4948700846407840B9094825
:10472000006884B224F01004064804600620087073
:1047300005E000BF00BF06200449087000BF00BFAD
:1047400070BD0000405C0040420000204501002098
:1047500008B501210820FCF7A7FD8020ADF8000076
:1047600010208DF8030003208DF8020069460848E8
:10477000FCF7DEFA08BD10B580210548FCF787FB81
:1047800010BD10B580210248FCF77FFB10BD000072
:10479000000C01400220FB490870FB480088A1F88A
:1047A0000100F9488078F849C97840EA4100F649A3
:1047B000097940EA8100F449497940EAC100F249A7
:1047C000897940EA0110F049C97940EA4110EE497F
:1047D000097A40EA8110EB49C870EB48407A0871C9
:1047E0004FF47A70E8494881E649A1F8050070471E
:1047F0000420E4490870E5480088A1F8010002207F
:10480000C8704FF4FA60888040F21450C880704736
:104810000520DC490870DE480088A1F80100DC486A
:104820008078C870DA48C0780871D9480079487132
:10483000704710B5D74C2368241D2168241D2268B9
:1048400003701C0A44701C0C84701C0EC47001712F
:104850000C0A44710C0C84710C0EC4710272140A9F
:104860004472140C8472140EC47210BD10B5044648
:10487000C9480068C078801E0A2871D2DFE800F0BD
:104880000510111C273A4D61728524B90720C249D1
:104890000968088203E0FFF77DFFBA4810BDA1E078
:1048A00000BF24B90820BC490968088203E0FFF76B
:1048B0009FFFB448F2E795E024B90620B64909689D
:1048C000088203E0FFF7A4FFAE48E7E78AE024B9D7
:1048D0000420B149096808820BE00620A949087044
:1048E000AE480088A1F80100AC488078C87008463E
:1048F000D4E777E024B90520A749096808820BE0CE
:104900000720A0490870A6480088A1F80100A44823
:104910008078C8700846C1E764E024B905209E4944
:10492000096808820CE00820964908709D480088B4
:10493000A1F801009B484088A1F803000846ADE7B4
:1049400050E024B9382094490968088209E0092018
:104950008C49087094480088A1F8010008469DE73A
:104960003FE03FE024B90F208B49096808820BE043
:104970000A20844908708D480088A1F80100C81CED
:10498000FFF757FF7F4889E72CE024B9342082499C
:104990000968088224E00B207A490870844800885E
:1049A000A1F8010082488078C87081488078112879
:1049B00004D0122807D013280FD109E07148001D38
:1049C00001F0A3F909E06F48001D01F0AFF804E021
:1049D0006C48001D01F054F800BF00BF69485DE756
:1049E00000E000BF00BF002058E701466A480068A9
:1049F000C078801E0A2864D2DFE800F0050E1B2470
:104A00002D363F48515A21B90720634A1268108257
:104A100001E06848704755E021B945205E4A1268B8
:104A2000108205E05C480068408A624A1044F1E761
:104A300048E021B90820584A1268108201E05D4818
:104A4000E8E73FE021B90620534A1268108201E0EE
:104A50005848DFE736E021B904204F4A1268108237
:104A600001E05448D6E72DE021B905204A4A1268F2
:104A7000108201E04F48CDE724E021B90520464AE5
:104A80001268108201E04B48C4E71BE021B93820CE
:104A9000414A1268108201E04648BBE712E021B9A2
:104AA0000F203D4A1268108201E04248B2E709E057
:104AB00021B93420384A1268108201E03D48A9E744
:104AC00000E000BF00BF0020A4E71CB541F21110B8
:104AD00001904FF6FF7000903648B0F8010036495B
:104AE000088001203549087032480078801E0A2865
:104AF0006CD2DFE800F005376C7D8FA0A9E1E7F20A
:104B00002C48B0F80100204908802A48C07800F0FD
:104B1000010088702748C078C0F34000C87025485D
:104B2000C078C0F3800008712248C078C0F3C0008C
:104B300048712048C078C0F3001088711D48C078C3
:104B4000C0F34010C8711B48C078C0F380100872D1
:104B50001848007948724FF47A704881012018494A
:104B60000870DEE01348B0F80100164908804222C0
:104B70001049C91C1348801C01F00DFA012012498C
:104B80000870CEE018020020C80100204A01002071
:104B900054010020E8F7FF1F380000205C010020CE
:104BA00062010020660100206C0100206E010020DF
:104BB000720100205D0200207601002079010020B2
:104BC00048010020D401002049010020A8E09E48AF
:104BD000B0F801009D490880042088704FF4FA70F5
:104BE000888040F21450C88001209949087098E0EC
:104BF0009548B0F80100974908809348C0788870BC
:104C000091480079C8709048407908710120924914
:104C1000087086E08C48B0F80100904908808A4806
:104C2000C078012800D100E000208C498870012064
:104C30008B49087075E08448B0F801008949088004
:104C40008148C07888706CE07F4800798649087098
:104C50000846007826280BD1002201218348FDF761
:104C600058F900F0CFFF012211468048FDF751F9B5
:104C70007D48007825281ED1012201A97C4800F03A
:104C80006EFA012269467A4800F058FABDF8000031
:104C900041F2111188420ED100BF7648006800F43D
:104CA000E06075490843001D72490860BFF34F8FEB
:104CB00000BF00BFFEE734E06348B0F801006F4971
:104CC00008802EE06048B0F801006D4908805E4819
:104CD000C01CFBF79CFB24E0FFE75B48B0F8010039
:104CE000684908805848C07888700846807801284C
:104CF00006D0022809D0032808D004280ED10CE0E1
:104D00005148001D01F026F808E007E04E48001D5C
:104D100001F053F800F005FF00E000BF00BF00E025
:104D200000BF00BF1CBD0146574A107811B90022D0
:104D3000554B1A70704755480088704754490268AF
:104D40000A6042684A6082688A6070475149026816
:104D50000A60704710B504464F48007888B10C22AD
:104D60004B49204601F0EBF858B100204A49087041
:104D7000474801682160416861608068A060012047
:104D800010BD0020FCE710B504464448007878B117
:104D900044224349204601F0D2F848B100203F495F
:104DA000087044223E49204601F0F5F8012010BD6C
:104DB0000020FCE710B504462548007878B10822A9
:104DC0002249204601F0BBF848B100202049087074
:104DD0001E480168216040686060012010BD00200D
:104DE000FCE701461C48007848B100201A4A1070C0
:104DF000184802680A608088888001207047002077
:104E0000FCE710B504461648007868B1042213493F
:104E1000204601F094F838B10020114908700F487D
:104E200000682060012010BD0020FCE701461D48FD
:104E3000007838B100201B4A1070164800680860DE
:104E4000012070470020FCE75D0200204A0100209D
:104E500052010020540100205A0100205C01002072
:104E60006001002062010020780100200004004061
:104E700048FF00080CED00E00000FA056C0100207E
:104E80006E010020720100207901002076010020CF
:104E9000C8010020660100204801002049010020CF
:104EA000D40100206A01002008B501210420FCF78C
:104EB000FBF90420ADF8000010208DF8030003205A
:104EC0008DF8020069460748FBF732FF04210548C8
:104ED000FBF7DBFF08BD10B5FFF7E6FFFFF738FC77
:104EE00010BD00000008014000B587B00121082076
:104EF000FCF7DAF901218803FCF7E3F90121084600
:104F0000FCF7D2F94FF46040ADF8040018208DF89A
:104F1000070003208DF8060001A92A48FBF708FFC7
:104F20004FF460412748FBF7B0FF0020ADF80800C0
:104F30004FF48270ADF80A000020ADF80C0002209A
:104F4000ADF80E000120ADF810004002ADF81200DF
:104F50001020ADF814000020ADF816000720ADF8C1
:104F6000180002A91848FCF729FA01211648FCF795
:104F7000CAFA07B000BD70B50546002405E0601C04
:104F8000C4B2C82C01DD002070BD02210E48FCF720
:104F90003EFB0028F3D029460B48FCF7E5FA002435
:104FA00005E0601CC4B2C82C01DD0020ECE7012143
:104FB0000548FCF72CFB0028F3D00348FCF7D6FA91
:104FC000C0B2E1E7000C014000380040014600BFDC
:104FD000704700BF454A128802F04002002AF9D00B
:104FE000C2B2424B1B1D1A80704710B586B00446F2
:104FF000012144F20400FCF757F93C48FDF74CFA54
:105000004FF40070ADF8140003208DF8160018203E
:105010008DF8170005A93648FBF78AFE4FF480602B
:10502000ADF8140004208DF8170005A93048FBF7EF
:105030007FFE01940020ADF80800ADF80A00ADF83D
:105040000C00ADF810000C20ADF80E0001A92748A7
:10505000FDF765FA012240F225512448FDF7F7FAE1
:1050600001212248FDF7E7FA06B010BD10B540F265
:1050700025511E48FDF7D0FB00B910BD1B48FDF7B8
:105080004BFBC4B21B48008800F4004000B1F4E7B9
:105090001848008800F4804060B10A2C03D000203A
:1050A0001449088020E01348008840F4004011496A
:1050B000088019E00D2C06D10E48008840F480408D
:1050C0000C49088010E00B480088C0F30D000A4925
:1050D0000C5408480088401C06490880084600888F
:1050E000C72801DD0020088000BFC6E70038014066
:1050F0000008014080010020A202002010B501211B
:105100000C20FCF7D1F84FF4A060FBF7D7F910BDE5
:105110000146088870472DE9F04105460E461746BE
:10512000002407E036F814102846FBF72AFCAD1CD3
:10513000601C84B2BC42F5DBBDE8F08130B50346AB
:105140000C461546002207E01846FFF7E1FF24F859
:1051500012009B1C501C82B2AA42F5DB30BD2DE927
:10516000F05F80468A461746B8F1006F02D3334895
:10517000804501D3BDE8F09FFBF7BBFAA8F1006BB7
:105180004FEA9B25CBF34809C9F50074A74200DC20
:105190003C464DE04FF0006101EB85208A14284920
:1051A000FFF7CCFF00260BE009EB0600244931F89D
:1051B00010004FF6FF71884200D003E0701C86B2E9
:1051C000A642F1DB00BFA6421BDA4FF0006101EB03
:1051D0008520FBF7D3FA002608E03AF8160006EB24
:1051E0000901174A22F81100701C86B2A642F4DBAE
:1051F0004FF0006101EB85208A141149FFF78BFF06
:1052000004E0224651464046FFF785FFA74200D101
:105210000FE06D1C4FF000090AEB440AA044381B54
:1052200087B2B7F5007F02DD4FF4007400E03C4622
:10523000B0E700BFFBF769FA00BF9BE70000010879
:105240006A03002010B56FF00400FBF786F93048C0
:1052500000683049B0FBF1F02F490870084600782B
:1052600000EB4001C1EBC0104FF6FF7101EAC00036
:105270002A49088010BD00204FF0E02108617047E6
:105280000146264A12884A434FF0E0235A61002221
:105290009A611A46126942F001021A6100BF4FF08A
:1052A000E022106900F001021AB100F48032002AF5
:1052B000F5D04FF0E022126922F001024FF0E02316
:1052C0001A6100229A6170470146134A12784A43D4
:1052D0004FF0E0235A6100229A611A46126942F0A7
:1052E00001021A6100BF4FF0E022106900F00102D4
:1052F0001AB100F48032002AF5D04FF0E022126992
:1053000022F001024FF0E0231A6100229A617047F7
:105310001C00002000127A0082010020840100207D
:1053200010B5C1F347340470C1F347144470C2F39D
:10533000824444EAC1048470C2F38724C470C2F377
:1053400087040471C3F3C53444EA82144471C3F37F
:10535000C71484715C06240EC47110BD30B5047886
:105360006403457844EA4514857844EAD504714DD0
:105370002C6044F314040C6084786407E40AC57854
:1053800044EA8524057944EA8504457944EA95147C
:10539000684D2C6044F3140414604479A406E40AB4
:1053A000857944EAC514C57944EA6504614D2C60E9
:1053B00044F314041C6030BD2DE9FE4F07460C4633
:1053C00015461E46DDE90EABDDE90C8901205A4980
:1053D00008704870594800884880002088801198DB
:1053E00001F032FB00B25449C880284601F02CFB82
:1053F0000290204601F028FB0190384601F024FB82
:10540000009001464C480830DDE90123FFF788FF92
:10541000484601F019FB0290404601F015FB01904F
:10542000304601F011FB0090014643481030DDE9A1
:105430000123FFF775FF504601F006FB00B23E491D
:105440000887584601F000FB00B23B494887109896
:1054500001F0FAFA00B238498887BDE8FE8F2DE9DD
:10546000F04792B008A800F09CFA10AA0FA90EA865
:1054700000F033F9314908880988491C2F4B1980FD
:1054800001F016FB04462E490A9801F025FB05465B
:105490002B49099801F020FB06462949089801F09C
:1054A0001BFB074626490D9801F016FB8046244950
:1054B0000C9801F011FB814621490B9801F00CFB7F
:1054C00082460022DDE90F0103AB17C30E983B466D
:1054D00042464946CDE9006502905046FFF76CFF11
:1054E00012B0BDE8F08710B501211648FCF7BFFFE8
:1054F000F8B101211348FCF7CBFF10480088401C8D
:105500000E4908803E224FF480710B48FEF73CFAAA
:105510000D49096848F6BF7201EA020080F01000E8
:1055200080F0200040F4004141F08001064A116003
:1055300000BF10BD880100206A0700208E010020F6
:1055400000401C4600040040045C004008B50121F6
:105550000820FBF7A9FE4FF48050ADF800001020A2
:105560008DF8030003208DF8020069467548FBF7AB
:10557000DFFB4FF480517348FBF787FC08BD70B523
:1055800005460C460020704908602846FFF7F3FCEA
:105590002046FFF7F0FC01206C49C1F8B001002063
:1055A00070BD10B5FFF7D2FF0C212120FFF7E7FFF8
:1055B0000A20FFF765FE7C212020FFF7E0FF0A208C
:1055C000FFF75EFE0C212320FFF7D9FF0A20FFF72B
:1055D00057FE40212420FFF7D2FF0A20FFF750FE9C
:1055E00000212220FFF7CBFF0A20FFF749FE10BD64
:1055F00070B50446002500205349086044F080003F
:10560000FFF7B9FCFF20FFF7B6FC054601204F4924
:10561000C1F8B001284670BDF8B504460D461646DF
:105620002820FFF7E5FF8DF800002920FFF7E0FFB5
:105630008DF801009DF800009DF8011040EA01205E
:1056400000B220802A20FFF7D3FF8DF800002B2026
:10565000FFF7CEFF8DF801009DF800009DF80110C6
:1056600040EA012000B228802C20FFF7C1FF8DF80E
:1056700000002D20FFF7BCFF8DF801009DF8000011
:105680009DF8011040EA012000B23080F8BD0FB44F
:1056900070B504460D4616460E99206801F0E8FAEA
:1056A00020600F99286801F0E3FA286010993068AB
:1056B00001F0DEFA30601199206801F00DFA2060E7
:1056C0001599286801F008FA28601999306801F0E6
:1056D00003FA306070BC5DF814FBF0B595B0044679
:1056E0000D46164614AA911E13A8FFF795FFBDF9A3
:1056F0004E0001F0C5F90746154901F0E3F82060B6
:10570000BDF94C10484201F0BBF90746104901F0C1
:10571000D9F82860BDF9500001F0B2F907460C49EC
:1057200001F0D0F8306048220A49684600F078FC61
:105730000848001F3246294603682046FFF7A7FFA6
:1057400015B0F0BD000C0140B08121420080214223
:1057500000002041B007002008B5FFF7C5FB01217C
:105760000420FBF7A1FD1020ADF800008DF8030028
:1057700003208DF802006946BA48FBF7D9FA1021D8
:10578000B848FBF782FB4FF48070ADF800001020A2
:105790008DF8030003208DF802006946B148FBF73D
:1057A000C7FA08BD70B505460C460020AE49086032
:1057B0002846FFF7E0FB2046FFF7DDFB0120AB4961
:1057C000C1F89001002070BD70B50446002500208E
:1057D000A549086044F08000FFF7CDFBFF20FFF7EC
:1057E000CAFB05460120A149C1F89001284670BDB9
:1057F00010B5FF24FFF7B0FF6420FFF741FD8021C3
:105800006B20FFF7CFFF0A20FFF73AFD7520FFF767
:10581000DBFF04466420FFF733FD07216820FFF714
:10582000C1FF6420FFF72CFD10216A20FFF7BAFFAB
:105830000A20FFF725FD02216B20FFF7B3FF0A20A6
:10584000FFF71EFD00211A20FFF7ACFF0A20FFF72B
:1058500017FD08211D20FFF7A5FF0A20FFF710FD07
:1058600018211B20FFF79EFF0A20FFF709FD0821E2
:105870001C20FFF797FF0A20FFF702FD10213720B9
:10588000FFF790FF204610BD2DE9FC4704460D466A
:1058900016461F46DDE90B9ADDF828803C20FFF70D
:1058A00093FF8DF800003B20FFF78EFF8DF801007D
:1058B0009DF800009DF8011040EA012000B2208010
:1058C0003E20FFF781FF8DF802003D20FFF77CFFAF
:1058D0008DF803009DF802009DF8031040EA0120B6
:1058E00000B228804020FFF76FFF8DF804003F20B2
:1058F000FFF76AFF8DF805009DF804009DF805107C
:1059000040EA012000B230804220FFF75DFF8DF8B1
:1059100000004120FFF758FF8DF801009DF80000BE
:105920009DF8011040EA012000B2AAF800004420CE
:10593000FFF74AFF8DF800004320FFF745FF8DF881
:1059400001009DF800009DF8011040EA012000B21E
:1059500038804620FFF738FF8DF802004520FFF71A
:1059600033FF8DF803009DF802009DF8031040EA14
:10597000012000B2A8F800004820FFF725FF8DF8AD
:1059800004004720FFF720FF8DF805009DF8040074
:105990009DF8051040EA012000B2A9F80000BDE81A
:1059A000FC872DE9F04788B00546002407A805A923
:1059B0008A1E04ABCDE900210290821E06A9801F39
:1059C000FFF762FF00BF14E00DF1160131F914007A
:1059D00001F056F807464FF0814101F07DF8064688
:1059E0004FF08E4100F06EFF05F10C0141F82400EC
:1059F000641C032CE8DB00241FE004A931F9140027
:105A000001F03EF882461A4850F82410504601F042
:105A10002FF98146174901F05FF88046164901F0D9
:105A20005BF807464FF08E4100F04CFF06461349E5
:105A300000F048FF45F82400641C032CDDDBBDF9B1
:105A40001C0042F21071484348F26B2190FBF1F0C8
:105A500000F63406304601F013F8686208B0BDE87D
:105A6000F08700000008014090012142000021421F
:105A7000B0070020DB0F49400000FA440000344327
:105A80002DE9F0410546002400271822E649E748A1
:105A9000FFF754FB00BF06E0E34830F81400FF288E
:105AA00000D17F1C641C182CF6DB182F18D10024A1
:105AB00013E00021DE4840F824104FF07E5104EB43
:105AC00044020C3000EB820040F82410002045F81E
:105AD0002400E01C45F82010641C032CE9DB1EE0C8
